:020000040800F2
:1000000000C00020F1630008C74B0008C94B00087E
:10001000CB4B0008CD4B0008CF4B00080000000080
:10002000000000000000000000000000D14B0008AC
:10003000D34B000800000000D54B0008D74B000848
:10004000396400083964000839640008396400081C
:10005000396400083964000839640008396400080C
:100060003964000839640008396400081142000846
:10007000E54B0008F54B00083964000839640008B6
:1000800039640008396400083964000839640008DC
:1000900039640008396400083964000839640008CC
:1000A00039640008396400083964000839640008BC
:1000B00039640008396400083964000839640008AC
:1000C000396400083964000839640008396400089C
:1000D000396400083964000839640008054C0008D8
:1000E000396400083964000839640008396400087C
:1000F000396400083964000839640008396400086C
:10010000396400083964000839640008396400085B
:10011000396400083964000839640008396400084B
:10012000396400083964000839640008396400083B
:1001300000000000000000000000000000000000BF
:1001400000000000000000000000000000000000AF
:10015000000000000000000000000000000000009F
:10016000000000000000000000000000000000008F
:10017000000000000000000000000000000000007F
:10018000000000000000000000000000000000006F
:10019000000000000000000000000000000000005F
:1001A000000000000000000000000000000000004F
:1001B000000000000000000000000000000000003F
:1001C000000000000000000000000000000000002F
:1001D000000000000000000000000000000000001F
:0401E0005FF8E0F1F3
:1001E40010B5054C237833B9044B13B10448AFF36D
:1001F40000800123237010BDC8010020000000000E
:10020400BC74000808B5034B1BB103490348AFF3A2
:10021400008008BD00000000CC010020BC74000870
:10022400044B0022DA61044A136943F001031361A9
:1002340001807047E801002000200240194BDB6870
:1002440013F0100305D0184AD36943F00203D361B5
:100254001023144AD26812F0040F06D01249CA6956
:1002640042F00102CA6143F004030E4AD26912F05B
:10027400010F09D00C49CA6942F00402CA61094954
:10028400CA6922F00102CA6140F20112934202D00B
:10029400044AD3607047034AD36923F00103D3614E
:1002A400704700BF00200240E8010020074B1B6993
:1002B40013F0800F07D0054B054A5A6002F18832CB
:1002C4005A60002070470120704700BF00200240A0
:1002D40023016745034A136943F080031361002037
:1002E400704700BF0020024038B5044601F080F991
:1002F4000546164BDB6813F0010F0AD0B4F1FF3F3B
:10030400F7D024B101F074F9401BA042F1D90320C5
:100314001BE00E4BDB6813F0200F02D00B4B2022A6
:10032400DA600A4BDB6813F0100F0BD1074BDB6963
:1003340013F0010F06D1054BDB6813F0040F01D154
:10034400002002E0FFF77AFF012038BD00200240C0
:100354002DE9F8431E46244B1B7E012B41D0044655
:100364000F469046204B01221A764CF25030FFF78C
:10037400BBFF034678BB012C08D0022C03D04FF0FE
:1003840004091C4607E04FF00209FAE74FF001099F
:10039400F7E70134E4B24C451DD22101C1F120023A
:1003A400A1F1200328FA01F106FA02F2114326FA18
:1003B40003F3194389B207EB4400FFF731FF4CF212
:1003C4005030FFF791FF094B1D6925F001051D61B0
:1003D40003460028DDD0044A002111761846BDE802
:1003E400F8830223FAE700BFE8010020002002405E
:1003F40082B0084B1B68084AA2FB03235B0A00FB7C
:1004040003F3019300BF019B5A1E0192002BF9D103
:1004140002B0704700000020D34D621070B582B066
:100424000446036813F0010F2CD09A4B5B6803F069
:100434000C03042B1DD0974B5B6803F00C03082BB3
:1004440012D06368B3F5803F41D0002B55D103F13E
:10045400804303F504331A6822F480321A601A6860
:1004640022F480221A6037E08A4B5B6813F4803FE1
:10047400E7D0884B1B6813F4003F03D06368002B5C
:1004840000F0AE81236813F0020F75D0814B5B68D6
:1004940013F00C0F5FD07F4B5B6803F00C03082B49
:1004A40054D02369002B00F08A807B4B01221A6010
:1004B40001F09EF80546774B1B6813F0020F75D1C7
:1004C40001F096F8401B0228F5D903208DE1714A0A
:1004D400136843F480331360636843B301F088F80E
:1004E40005466C4B1B6813F4003FCBD101F080F838
:1004F400401B6428F5D9032077E1B3F5A02F09D078
:10050400644B1A6822F480321A601A6822F480223A
:100514001A60E1E703F18043A3F53C331A6842F41F
:1005240080221A601A6842F480321A60D4E701F01B
:100534005FF80546574B1B6813F4003FA2D001F047
:1005440057F8401B6428F5D903204EE1514B5B68F2
:1005540013F4803FA5D14F4B1B6813F0020F03D057
:100564002369012B40F03E814A4A136823F0F803C3
:10057400616943EAC1031360236813F0080F33D0A1
:10058400A369002B5CD0444B0122C3F8802401F002
:100594002FF805463F4B5B6A13F0020F21D101F09F
:1005A40027F8401B0228F5D903201EE1394A1368B5
:1005B40023F0F803616943EAC1031360DCE7364BB7
:1005C40000221A6001F014F80546324B1B6813F040
:1005D400020FD1D001F00CF8401B0228F5D90320FA
:1005E40003E10120FFF704FF236813F0040F00F078
:1005F4009780284BDB6913F0805F34D1254BDA698F
:1006040042F08052DA61DB6903F080530193019B6D
:100614000125224B1B6813F4807F26D0E368012B4D
:100624003ED0002B54D103F1804303F504331A6AFE
:1006340022F001021A621A6A22F004021A6234E0F9
:10064400154B0022C3F8802400F0D2FF0546114B5D
:100654005B6A13F0020FC7D000F0CAFF401B0228E8
:10066400F5D90320C1E00025D3E70C4A136843F40D
:100674008073136000F0BCFF0646084B1B6813F43C
:10068400807FCBD100F0B4FF801B6428F5D9032010
:10069400ABE000BF00100240000042420070004086
:1006A400544A136A43F001031362E36833B300F05E
:1006B4009FFF06464F4B1B6A13F0020F2FD100F029
:1006C40097FF801B41F288339842F3D903208CE0D2
:1006D400052B09D0474B1A6A22F001021A621A6AE2
:1006E40022F004021A62E0E7424B1A6A42F0040262
:1006F4001A621A6A42F001021A62D6E700F078FF21
:1007040006463C4B1B6A13F0020F08D000F070FF42
:10071400801B41F288339842F3D9032065E0E5B9A0
:10072400E369002B60D0334A526802F00C02082AB5
:100734005DD0022B17D0304B00221A6600F058FF10
:1007440004462C4B1B6813F0007F47D000F050FF89
:10075400001B0228F5D9032047E0264AD36923F079
:100764008053D361DCE7244B00221A6600F040FF7B
:100774000546204B1B6813F0007F06D000F038FFBD
:10078400401B0228F5D903202FE0236AB3F5803FEC
:100794001AD018494B6823F47413226A606A02431E
:1007A40013434B60144B01221A6600F021FF0446E8
:1007B400104B1B6813F0007F0ED100F019FF001BD3
:1007C4000228F5D9032010E00A4A536823F40033C1
:1007D400A1680B435360DCE7002006E0002004E03E
:1007E400012002E0012000E0002002B070BD0120E1
:1007F400FBE700BF001002400000424286B0164BE7
:100804000FCB0DF1180C0CE90F0040F20123ADF8E9
:100814000430124B5B6803F00C02082A02D0104823
:1008240006B07047C3F38342624412F8100C13F409
:10083400803F0CD0094B5B68C3F34043634413F817
:10084400142C074BB3FBF2F303FB00F0E8E7054B72
:1008540003FB00F0E4E700BFD4740008001002407A
:1008640000127A0000093D0070B504460D46594B4C
:100874001B6803F007038B420BD2564A136823F01C
:1008840007030B431360136803F007038B4240F024
:100894009A80236813F0020F06D04F4A536823F05E
:1008A400F003A1680B435360236813F0010F52D087
:1008B4006368012B23D0022B28D0474A126812F018
:1008C400020F00F0828044494A6822F00302134375
:1008D4004B6000F08DFE06466368012B1DD0022B91
:1008E4002AD03D4B5B6813F00C0F34D000F080FE2F
:1008F400831B41F288329342F3D9032062E0364AE3
:10090400126812F4003FDED101205BE0324A126823
:1009140012F0007FD7D1012054E02F4B5B6803F025
:100924000C03042B17D000F063FE831B41F28832C2
:100934009342F2D9032045E0274B5B6803F00C0394
:10094400082B08D000F054FE801B41F288339842F3
:10095400F2D9032036E01F4B1B6803F00703AB42B8
:100964000AD91C4A136823F007032B431360136846
:1009740003F00703AB422AD1236813F0040F06D017
:10098400154A536823F4E063E1680B43536023681A
:1009940013F0080F07D0104A536823F460532169F9
:1009A40043EAC1035360FFF729FF0B4B5B68C3F3B2
:1009B40003130A4AD35CD840094B1860002000F0A6
:1009C400E7FD002070BD0120FCE70120FAE70120CB
:1009D400F8E700BF0020024000100240E87400085D
:1009E40000000020014B1868704700BF0000002081
:1009F40008B5FFF7F7FF044B5B68C3F30223034A10
:100A0400D35CD84008BD00BF00100240F874000851
:100A140008B5FFF7E7FF044B5B68C3F3C223034A3F
:100A2400D35CD84008BD00BF00100240F874000831
:100A340030B4036A23F001030362036A42688469E1
:100A440024F073040D682C4323F0020C8B6843EAF2
:100A54000C03104DA84203D005F50065A84205D14A
:100A640023F00803CD682B4323F00403094DA84267
:100A740003D005F50065A84205D122F440724D6902
:100A84002A438D692A43426084614A68426303624F
:100A940030BC7047002C014030B4036A23F48073E7
:100AA4000362036A4268C46924F0730C0C6844EA64
:100AB4000C0523F400738C6843EA0423114CA04210
:100AC40003D004F50064A04206D123F40063CC688B
:100AD40043EA042323F480630A4CA04203D004F5C0
:100AE4000064A04207D122F440524C6942EA041245
:100AF4008C6942EA04124260C5614A68C2630362B7
:100B040030BC7047002C014030B4036A23F4805396
:100B14000362036A4468C26922F4E6420D6842EA49
:100B2400052223F400538D6843EA0533094DA84296
:100B340003D005F50065A84204D124F480444D692E
:100B440044EA85144460C2614A680264036230BCAA
:100B5400704700BF002C014010B4036A046A24F0FB
:100B640001040462846924F0F00C4CEA021223F0BC
:100B74000A030B438261036210BC704710B4046A19
:100B840024F0100404628469036A24F4704C4CEA6F
:100B9400023223F0A00343EA01138261036210BC12
:100BA400704710B4846824F47F4C42EA03220A4359
:100BB40042EA0C02826010BC704710B50468A26857
:100BC40022F070024B68134323F007030A681343AF
:100BD400A3604B68602B24D009D8402B10D0502B35
:100BE4000DD10A6989680068FFF7B6FF07E0702B2A
:100BF40005D10B698A68C9680068FFF7D2FF10BD88
:100C040003681C6A1A6A22F001021A620268936974
:100C140023F0F003096943EA0113936103681C623A
:100C2400EDE70A6989680068FFF7A8FFE7E77047FE
:100C340038B590F83C30012B18D00446012580F8D3
:100C44003C50022380F83D30FFF7B7FF2268D36899
:100C540023F04003D3602268D36823F48043D36035
:100C640084F83D50002084F83C0038BD0220FCE7A5
:100C74000368244A904212D002F5006290420ED0DA
:100C8400B0F1804F0BD0A2F59832904207D002F514
:100C94008062904203D002F58062904203D123F037
:100CA40070034A681343174A904212D002F5006257
:100CB40090420ED0B0F1804F0BD0A2F59832904202
:100CC40007D002F58062904203D002F58062904220
:100CD40003D123F44073CA68134323F080034A69A1
:100CE400134303608B68C3620B688362054B9842AD
:100CF40003D003F50063984201D10B690363012318
:100D040043617047002C0140B0B110B5044690F81F
:100D14003D3063B1022384F83D30214651F8040B81
:100D2400FFF7A6FF012384F83D30002010BD80F8B2
:100D34003C30FFF77CFFEDE70120704730B4036AD5
:100D440023F010030362036A4468826922F4E642D2
:100D54000D6842EA052223F020038D6843EA051357
:100D6400114DA84203D005F50065A84206D123F031
:100D74008003CD6843EA051323F040030A4DA842DB
:100D840003D005F50065A84207D124F440644D69F9
:100D940044EA85048D6944EA8504446082614A68B2
:100DA4008263036230BC7047002C014038B590F870
:100DB4003C30012B66D004460D46012380F83C30BC
:100DC400022380F83D300C2A1AD8DFE802F0071914
:100DD4001919201919193419191947000068FFF74E
:100DE40027FE2268936943F008039361226893699C
:100DF40023F0040393612268936929690B43936187
:100E0400012384F83D30002084F83C0038BD00689C
:100E1400FFF794FF2268936943F4006393612268A7
:100E2400936923F48063936122689369296943EA8F
:100E340001239361E4E70068FFF72EFE2268D3697B
:100E440043F00803D3612268D36923F00403D36118
:100E54002268D36929690B43D361D1E70068FFF79E
:100E640053FE2268D36943F40063D3612268D369D3
:100E740023F48063D3612268D369296943EA012397
:100E8400D361BDE70220C1E7012303FA01FC036A31
:100E940023EA0C030362036A02FA01F10B430362BF
:100EA4007047000010B5044601220068FFF7ECFF0C
:100EB4002368094A934203D002F50062934203D1A6
:100EC4005A6C42F400425A642268136843F00103E6
:100ED4001360002010BD00BF002C0140042303FA5E
:100EE40001FC036A23EA0C030362036A02FA01F1B8
:100EF4000B430362704710B5044604220068FFF7F1
:100F0400EDFF2268536C43F4004353642268136872
:100F140043F001031360002010BD90F83C30012B16
:100F240025D0012380F83C30CB6823F440738A68D1
:100F3400134323F480634A68134323F400630A6869
:100F4400134323F480530A69134323F400534A6977
:100F5400134323F480438A69134323F40043134364
:100F640002685364002380F83C301846704702201E
:100F7400704790F83C30012B22D030B4012280F825
:100F84003C20022380F83D300468636823F070033A
:100F94006360046863680D682B4363600468A36836
:100FA40023F08003A3600468A36849680B43A3602B
:100FB40080F83D20002380F83C30184630BC704750
:100FC4000220704790F82420012A25D08CB00346D3
:100FD400012280F82420114A00920268906810F0DF
:100FE400010F07D10D48806810F0010F02D10C48A1
:100FF400824209D09A6A42F020029A6201200022B9
:1010040083F824200CB07047506820F470200968DD
:10101400014351600020F2E702207047002801409C
:1010240000240140074AD36823F4E0631B041B0C2B
:10103400000200F4E060034343F0BF6343F4003371
:10104400D360704700ED00E000B5194BDB68C3F3D3
:101054000223C3F1070CBCF1040F28BF4FF0040CAA
:1010640003F1040EBEF1060F18D9033B4FF0FF3E07
:101074000EFA0CFC21EA0C0199400EFA03F322EA61
:101084000303194300280BDB0901C9B200F16040D6
:1010940000F5614080F800135DF804FB0023E5E7E8
:1010A40000F00F000901C9B2024B1954F4E700BF64
:1010B40000ED00E014ED00E000F01F024009012300
:1010C4009340024A42F82030704700BF00E100E03C
:1010D4000138B0F1807F0BD24FF0E0235861054A0C
:1010E400F02182F823100020986107221A617047CA
:1010F4000120704700ED00E0042806D04FF0E02204
:10110400136923F00403136170474FF0E02213695D
:1011140043F0040313617047704708B5FFF7FCFF01
:1011240008BD0000064B0022DA61064B1A6942F042
:1011340004021A611A6942F040021A61704700BF42
:10114400E801002000200240064B0022DA61064B31
:101154001A6942F002021A6158611A6942F04002A7
:101164001A617047E801002000200240264B1B7ED4
:10117400012B46D070B505460E46234B01221A7644
:101184000368022B20D04CF25030FFF7ADF890BB2F
:101194004FF0FF333360AC680121EA68AB6803EBBE
:1011A400C223A34228D92046FFF7CEFF4CF2503089
:1011B400FFF79AF8154A136923F0020313610146F5
:1011C400B8B904F50064E8E74CF25030FFF78CF846
:1011D40008B1012110E00120FFF7A4FF4CF25030C8
:1011E400FFF782F80146094A136923F004031361E7
:1011F40002E0346000E00121034B00221A76084625
:1012040070BD022108467047E8010020002002401A
:1012140070B582B00024A446B0E0874DAA4210D035
:1012240007D9864DAA420CD005F58035AA4208D0CC
:1012340013E0A5F58015AA4203D005F57025AA424E
:1012440007D18A68002A62D0012A5BD0436108244E
:1012540003E0A5F58015AA42F3D0BEF1FF0F58D8DC
:101264000646BEF1FF0F56D84FEA8C0233680F25AD
:10127400954023EA050304FA02F2134333604B68F2
:1012840013F0805F78D06E4B9A6942F001029A6144
:101294009B6903F001030193019B4FEA9C02951C97
:1012A400684B53F825600CF003039D000F23AB40FB
:1012B40026EA0306644B984233D003F580639842D0
:1012C40000F0988003F58063984200F0958003F560
:1012D4008063984200F0928003F58063984200F0A6
:1012E4008F8003F58063984219D006231AE0CC68F6
:1012F400B3E7CC680434B0E7CC680834ADE7CC6815
:101304000C34AAE703610824A7E70024A5E7042412
:10131400A3E7061DA5E7ACF108029200A6E70523A2
:1013240000E00023AB4033430232464D45F82230FF
:101334004B6813F4803F65D0444A136843EA0E03B4
:1013440013604B6813F4003F62D0404A536843EA89
:101354000E0353604B6813F4801F5FD03B4A9368BD
:1013640043EA0E0393604B6813F4001F5CD0374AC2
:10137400D36843EA0E03D3600CF1010CBCF10F0FE8
:1013840058D8012303FA0CF30A6802EA030E33EA7D
:101394000202F1D14A68122A3FF63FAF122A3FF601
:1013A4005CAF01A555F822F047120008F3120008BB
:1013B400FD1200080F1300085F1200085F120008F6
:1013C4005F1200085F1200085F1200085F12000835
:1013D4005F1200085F1200085F1200085F12000825
:1013E4005F1200085F1200085F120008F71200087D
:1013F40003130008012395E7022393E7032391E7EE
:1014040004238FE7114A136823EA0E03136098E755
:101414000E4A536823EA0E0353609BE70B4A936812
:1014240023EA0E0393609EE7084AD36823EA0E0377
:10143400D360A1E702B070BD00002210000031109B
:101444000010024000000140000801400004014077
:101454008368194201D001207047002070470AB107
:1014640001617047090401617047C3685940C16054
:101474007047000070B582B00446036813F0010F92
:1014840036D03F4BDB6913F0805F49D13C4BDA69BE
:1014940042F08052DA61DB6903F080530193019BCF
:1014A4000125384B1B6813F4807F3BD0344B1B6AF7
:1014B40013F4407313D0626802F440729A420ED05F
:1014C4002F4A136A23F440702F490126C1F840645F
:1014D4000026C1F84064106213F0010F36D1284A87
:1014E400136A23F4407361680B431362002D3ED1E9
:1014F400236813F0020F06D0214A536823F44043B3
:10150400A1680B435360236813F0100F34D01C4AB6
:10151400536823F4800361690B43536000202CE07B
:101524000025BEE7174A136843F48073136000F084
:101534005FF80646134B1B6813F4807FB6D100F0A6
:1015440057F8801B6428F5D9032016E000F050F802
:1015540006460B4B1B6A13F0020FC0D100F048F88B
:10156400801B41F288339842F3D9032005E0D36904
:1015740023F08053D361BBE7002002B070BD00BFED
:10158400001002400070004000004242704700001A
:1015940010B50446074B1868074BA3FB00308009BD
:1015A400FFF796FD002221464FF0FF30FFF74CFD78
:1015B400002010BD00000020D34D621008B5074A7A
:1015C400136843F0100313600320FFF72BFD002082
:1015D400FFF7DEFFFFF7DAFF002008BD002002401E
:1015E400024A136801331360704700BF08020020E9
:1015F400014B1868704700BF0802002030B583B063
:101604000190FFF7F5FF0546019CB4F1FF3F00D0C0
:101614000134FFF7EDFF401BA042FAD303B030BD05
:101624007047000030B482B00022019290F8242068
:10163400012A00F091800346012280F824204A68A0
:10164400062A2DD80468606B02EB8202053A4FF03B
:101654001F0C0CFA02FC20EA0C000D6805FA02F2D9
:10166400024362630A68092A3AD91C68E06802EBFB
:1016740042021E3A4FF0070C0CFA02FC20EA0C005E
:101684008D6805FA02F20243E2600A68103A012A00
:1016940036D90020002283F8242002B030BC7047E1
:1016A4000C2A0ED80568286B02EB8202233A1F2409
:1016B400944020EA04000C6804FA02F202432A630C
:1016C400D0E70568E86A02EB8202413A1F2494409D
:1016D40020EA04000C6804FA02F20243EA62C1E759
:1016E4001C68206902EB42024FF0070C0CFA02FC62
:1016F40020EA0C008D6805FA02F202432261C4E775
:101704001A681648824205D09A6A42F020029A6208
:101714000120BFE7906810F4000F1BD1906840F4DB
:10172400000090600A68102A01D00020B2E70C4A39
:1017340012680C49A1FB0212920C02EB82025200C5
:10174400019202E0019A013A0192019A002AF9D128
:1017540000209FE700209DE702209EE7002401402F
:101764000000002083DE1B4330B583B000230193C7
:1017740003689A6812F0010F2ED104469A6842F069
:1017840001029A60164B1B68164AA2FB03239B0CAA
:10179400019302E0019B013B0193019B002BF9D1D2
:1017A400FFF726FF054623689B6813F0010F11D14C
:1017B400FFF71EFF431B022BF5D9A36A43F0100366
:1017C400A362E36A43F00103E362002384F8243054
:1017D400012002E0002000E0002003B030BD00BF83
:1017E4000000002083DE1B4390F82430012B68D0D6
:1017F40010B50446012380F82430FFF7B5FF002814
:101804005BD1A36A23F4407323F0010343F4807390
:10181400A36223682C4A934227D0A26A22F480123E
:10182400A2625A6812F4806F05D0A26A22F4405270
:1018340042F48052A262A26A12F4805F2BD0E26A60
:1018440022F00602E262002284F824206FF00202F1
:101854001A6023689A6802F46022B2F5602F1DD0E2
:101864009A6842F480129A602AE0A2F58062526873
:1018740012F4702FD1D0A26A42F48012A262134AE9
:10188400526812F4806FD6D0A26A22F4405242F415
:101894008052A262CFE70022E262D4E70A4A93426E
:1018A40004D09A6842F4A0029A6009E0A2F580622A
:1018B400526812F4702FD3D1F3E7002384F8243054
:1018C40010BD0220704700BF0028014000240140E1
:1018D40038B503689A6812F0010F01D1002038BDB1
:1018E40004469A6822F001029A60FFF781FE0546D9
:1018F40023689B6813F0010F0ED0FFF779FE431B9A
:10190400022BF5D9A36A43F01003A362E36A43F000
:101914000103E3620120E2E70020E0E7002800F091
:101924008680F8B50446836A002B50D02046FFF722
:10193400CFFFA36A13F0100373D1002871D1A26AF8
:1019440022F4885222F0020242F00202A262626889
:10195400266838498E4240D0E1690A43E16842EA88
:101964004102A568B5F5807F02D0012D3CD01D460B
:101974006769012F3BD0716821F469412943716083
:101984002568AE682C4931401143A960A168B1F5BE
:10199400807F01D0012902D12369013B1B05256801
:1019A400E96A21F470010B43EB6223689968234BC5
:1019B4000B409A422CD0A36A23F0120343F0100385
:1019C400A362E36A43F00103E36201202EE0C362F1
:1019D40080F82430FFF724FEA8E7E169B1F5402F31
:1019E400BBD14FF40021B8E74FF48075C0E731B99B
:1019F400A169013945EA413141F40065BBE7A16AB7
:101A040041F02001A162E16A41F00101E162B2E723
:101A14000023E362A36A23F0030343F00103A362F8
:101A240004E0A36A43F01003A3620120F8BD01207F
:101A3400704700BF003C0140FDF7E1FFFE0E1FFFB1
:101A44000268D36823F0C003D360202380F83930C0
:101A540070470268D36823F49073D36002685369B3
:101A640023F001035361202380F83A30704790F843
:101A74003930DBB2212B01D0022070478368B3F5E3
:101A8400805F17D0036A5A1C02621A7803685A608E
:101A9400C38C9BB2013B9BB2C3844BB90268D3682D
:101AA40023F08003D3600268D36843F04003D3601B
:101AB40000207047036A1B880268C3F3080353605D
:101AC40003691BB9036A02330362E1E7036A013362
:101AD4000362DDE72DE9F04104460268136923F44B
:101AE4004053C1680B43136183680269134342691D
:101AF40013430168CA6822F4B05222F00C02134363
:101B0400CB600268536923F4407381690B435361CA
:101B14000268574B9A4255D0FEF76AFF00EB8000EB
:101B240000EB80006568AD00B0FBF5F5514FA7FBF5
:101B340005356D092E01FEF75BFF00EB800000EB1D
:101B440080006568AD00B0FBF5F5FEF751FF00EBD2
:101B5400800000EB800063689B00B0FBF3F3A7FBFD
:101B640003235B094FF0640808FB13531B01323352
:101B7400A7FB03235B0903F0F003F518FEF738FF16
:101B840000EB800000EB80006668B600B0FBF6F660
:101B9400FEF72EFF00EB800000EB800063689B00E3
:101BA400B0FBF3F0A7FB0030400908FB1060000114
:101BB4003230A7FB0037C7F3431723682F449F60D5
:101BC400BDE8F081FEF724FF00EB800000EB80000D
:101BD4006568AD00B0FBF5F5264FA7FB05356D092B
:101BE4002E01FEF715FF00EB800000EB8000656816
:101BF400AD00B0FBF5F5FEF70BFF00EB800000EB4A
:101C0400800063689B00B0FBF3F3A7FB03235B092D
:101C14004FF0640808FB13531B013233A7FB032363
:101C24005B0903F0F003F518FEF7F2FE00EB800009
:101C340000EB80006668B600B0FBF6F6FEF7E8FE3F
:101C440000EB800000EB800063689B00B0FBF3F0C6
:101C5400A7FB0030400908FB106000013230A7FBED
:101C64000037C7F3431723682F449F60A8E700BFDA
:101C7400003801401F85EB512DE9F84305460F4616
:101C840016469946DDF820802C68246837EA040358
:101C94000CBF4FF0010C4FF0000CB4451FD1B8F14C
:101CA400FF3FF1D0B8F1000F05D0FFF7A1FCA0EB86
:101CB40009004045E8D92A68D36823F4D073D36077
:101CC4002A68536923F001035361202385F83930CE
:101CD40085F83A30002385F83830032000E00020EE
:101CE400BDE8F88358B310B5044690F839300BB307
:101CF400242384F839302268D36823F40053D36052
:101D04002046FFF7E7FE2268136923F4904313612A
:101D14002268536923F02A0353612268D36843F489
:101D24000053D3600020E063202384F8393084F822
:101D34003A3010BD80F8383000F034FDD8E7012087
:101D440070472DE9F04182B01E4690F83930DBB27D
:101D5400202B55D104460D469046002954D0002A24
:101D640054D090F83830012B52D0012380F8383009
:101D74000023C363212380F83930FFF739FC074679
:101D8400A4F82480A4F8268010E000963B460022A4
:101D940080212046FFF770FF00283BD12B88226862
:101DA400C3F3080353602369CBB90235E38C9BB2B8
:101DB400BBB1E28C92B2013A92B2E284A368B3F569
:101DC400805FE2D000963B46002280212046FFF748
:101DD40053FF08BB15F8012B23685A60E6E7013569
:101DE400E4E700963B46002240212046FFF744FFEB
:101DF400A0B9202384F83930002384F8383000E077
:101E0400022002B0BDE8F0810120FAE70120F8E7E2
:101E14000220F6E70320F4E70320F2E70320F0E7CB
:101E240030B583B0044690F83A00C0B220283CD1C3
:101E340000293DD0002A3DD094F83830012B3BD006
:101E4400012384F83830A162A2850025E5632223AA
:101E540084F83A30636B19489862636B1848D86207
:101E6400636B18481863636B5D63206813460A4606
:101E7400011D606B00F0D6F9019523681A68019280
:101E84005A680192019A84F83850DA6842F48072F0
:101E9400DA602268536943F001035361226853698D
:101EA40043F040035361284600E0022003B030BDF4
:101EB4000120FBE70120F9E70220F7E7EB1E000809
:101EC400C91F0008D51F0008704708B50168CA6813
:101ED40022F04002CA60202280F83920FFF7F4FF84
:101EE400002008BD704708B50346406A1B681B689C
:101EF40013F0200F13D10023C3850268D36823F4A1
:101F04008073D3600268536923F00103536102684C
:101F1400536923F040035361202380F83A30FFF7DC
:101F2400E1FF08BD08B590F83A30DBB2222B46D168
:101F34008368B3F5805F0FD003690BBB03685A68ED
:101F4400836A591C81621A70C38D9BB2013B9BB298
:101F5400C385F3B1002008BD826A036943B90368ED
:101F64005B68C3F308031380836A02338362EBE77D
:101F740003685B68DBB21380836A01338362E3E73F
:101F840003685B68826A511C816203F07F031370EB
:101F9400DAE70268D36823F02003D3600268D368C9
:101FA40023F48073D3600268536923F001035361FF
:101FB400202380F83A30FFF795FF0020CBE702207A
:101FC400C9E7704708B5406AFFF7FBFF08BD7047D3
:101FD40010B5446A23685A6994F83930DBB2212B6E
:101FE40010D023685A6902F0400294F83A30DBB208
:101FF400222B11D0E36B43F01003E3632046FFF779
:10200400E6FF10BD02F08002002AEAD00023E38438
:102014002046FFF715FDE4E7002AEBD00023E38513
:102024002046FFF716FDE5E710B50446026813687D
:10203400D168526913F00F0005D113F0200F02D0BC
:1020440011F0200F13D128B112F0010213D111F4B1
:10205400907F10D113F0800F02D011F0800F69D15E
:1020640013F0400F02D011F0400F67D110BD20468D
:10207400FFF758FFFAE713F0010F06D011F4807F41
:1020840003D0E06B40F00100E06313F0040F04D0D0
:102094001AB1E06B40F00200E06313F0020F04D0C9
:1020A4001AB1E06B40F00400E06313F0080F04D0B1
:1020B4001AB1E26B42F00802E263E26B002AD5D067
:1020C40013F0200F02D011F0200F21D123685B6997
:1020D40003F04003E26B12F0080F00D123B3204653
:1020E400FFF7B7FC23685A6912F0400F18D05A69F9
:1020F40022F040025A61636B73B1124A5A63606BF7
:1021040000F0CAF80028B1D0606B436B9847ADE784
:102114002046FFF707FFD9E72046FFF758FFA5E75A
:102124002046FFF754FFA1E72046FFF750FF0023A6
:10213400E3639BE72046FFF79AFC97E72046FFF707
:10214400C4FE93E74D21000808B5406A0023C38507
:10215400C384FFF73CFF08BD30B40124056CAC40D8
:10216400C56B6C60046863604368102B05D003681A
:1021740099600368DA6030BC704703689A6003684A
:10218400D960F8E700283ED010B4034600681F4A1F
:1021940090422DD81E4A02441E49A1FB0212120984
:1021A40092001A641C4ADA63022283F8212001682F
:1021B40021F47F5121F030015A689C682243DC6885
:1021C40022431C6922435C6922439C692243DC69E3
:1021D40022430A43026000209862D862186358635D
:1021E4009863012283F8212083F8200010BC7047F3
:1021F4000A4A02440749A1FB0212120992001A6416
:10220400074ADA63D0E70120704700BF07040240A1
:10221400F8FFFDBFCDCCCCCC00000240F8FBFDBFE5
:102224000004024038B5044690F82000012831D05B
:10223400012084F8200094F82100012804D0002310
:1022440084F82030022038BD022084F821000020C8
:10225400A0632568286820F0010028602046FFF765
:102264007BFFE36A5BB12268136843F00E031360DB
:102274002268136843F0010313600020E3E7226837
:10228400136823F0040313602268136843F00A03FD
:102294001360EDE70220D6E708B590F82130022B51
:1022A40003D004238363012008BD0268136823F06C
:1022B4000E0313600268136823F0010313600368BC
:1022C4004B4A93424ED9783A934224D014329342E3
:1022D40030D0143293422FD0143293422FD0143280
:1022E40093422FD0143293422FD0143293422FD0E2
:1022F40002F5627293422ED0143293422DD01432DE
:1023040093422CD01432934202D04FF4803203E033
:102314004FF4805200E00122364B5A60012380F8CA
:102324002130002380F82030436B002B5ED0984787
:102334000020B9E71022EFE74FF48072ECE74FF486
:102344008052E9E74FF48032E6E74FF48012E3E786
:102354004FF08072E0E70122DEE71022DCE74FF461
:102364008072D9E7244A934224D01432934225D070
:102374001432934224D01432934224D01432934220
:1023840024D01432934224D01432934224D002F540
:102394006272934223D01432934222D01432934275
:1023A40021D01432934202D04FF4803203E04FF430
:1023B400805200E00122114B5A60AFE71022FAE785
:1023C4004FF48072F7E74FF48052F4E74FF4803211
:1023D400F1E74FF48012EEE74FF08072EBE7012251
:1023E400E9E71022E7E74FF48072E4E700205BE7B7
:1023F4008000024000040240080002400000024045
:1024040038B5C36B1A6804682568016C04238B40D3
:10241400134200F09B8015F0040F00F097802368AE
:1024240013F0200F03D1236823F00403236003680F
:102434009A4A934246D9783A934224D0143293422A
:1024440028D01432934227D01432934227D0143226
:10245400934227D01432934227D01432934227D088
:1024640002F56272934226D01432934225D014327C
:10247400934224D01432934202D04FF4802203E0DA
:102484004FF4804200E00422854B5A60C36A03B1D2
:10249400984738BD4022F7E74FF48062F4E74FF4E1
:1024A4008042F1E74FF48022EEE74FF48002EBE73D
:1024B4004FF08062E8E70422E6E74022E4E74FF4C5
:1024C4008062E1E7774A934224D01432934225D0C4
:1024D4001432934224D01432934224D014329342BF
:1024E40024D01432934224D01432934224D002F5DF
:1024F4006272934223D01432934222D01432934214
:1025040021D01432934202D04FF4802203E04FF4DE
:10251400804200E00422644B5A60B7E74022FAE7A5
:102524004FF48062F7E74FF48042F4E74FF48022DF
:10253400F1E74FF48002EEE74FF08062EBE704220C
:10254400E9E74022E7E74FF48062E4E702238B40A7
:10255400134200F0AB8015F0020F00F0A78023684F
:1025640013F0200F06D1236823F00A03236001230C
:1025740080F821300368494A93424BD9783A934210
:1025840024D0143293422DD0143293422CD01432DE
:1025940093422CD0143293422CD0143293422CD038
:1025A400143293422CD002F5627293422BD014322F
:1025B40093422AD01432934229D01432934202D047
:1025C4004FF4003203E04FF4005200E00222344B97
:1025D4005A60002380F82030836A002B3FF459AFFF
:1025E400984756E72022F2E74FF40072EFE74FF4E2
:1025F4000052ECE74FF40032E9E74FF40012E6E74B
:102604004FF00072E3E70222E1E72022DFE74FF414
:102614000072DCE7234A934224D01432934225D03B
:102624001432934224D01432934224D0143293426D
:1026340024D01432934224D01432934224D002F58D
:102644006272934223D01432934222D014329342C2
:1026540021D01432934202D04FF4003203E04FF4FD
:10266400005200E00222104B5A60B2E72022FAE73F
:102674004FF40072F7E74FF40052F4E74FF40032DE
:10268400F1E74FF40012EEE74FF00072EBE702229D
:10269400E9E72022E7E74FF40072E4E78000024014
:1026A400000402400800024000000240082303FA2C
:1026B40001F111423FF4EDAE15F0080F3FF4E9AE1D
:1026C400236823F00E032360026CC16B012303FA19
:1026D40002F24A60836380F82130002380F82030BE
:1026E400036B002B3FF4D5AE9847D2E60F4B1A6824
:1026F40042F001021A6059680D4A0A405A601A6889
:1027040022F0847222F480321A601A6822F4802241
:102714001A605A6822F4FE025A604FF41F029A604B
:10272400044B4FF000629A60704700BF00100240F3
:102734000000FFF800ED00E000B583B0164B5A69C5
:1027440042F001025A615B6903F001030193019BAA
:10275400002211460C20FEF777FC0C20FEF7ACFC9F
:10276400002211460D20FEF76FFC0D20FEF7A4FC9D
:102774000A480B4B03604FF4E1334360002383604A
:10278400C36003610C2242618361C361FFF7AAFA4B
:1027940003B05DF804FB00BF0010024010040020E9
:1027A40000480040F0B589B0044600230493059323
:1027B4000693079303685C4A934204D05B4A9342AE
:1027C40058D009B0F0BD5A4BDA6942F40032DA61EC
:1027D400DA6902F400320092009A9A6942F0040223
:1027E4009A619B6903F004030193019B04230493FE
:1027F40002230593032307934E4E04A93046FEF7A4
:1028040007FD08230493002505950123069304A9D5
:102814003046FEF7FDFC484E484B33607560B560AA
:102824008027F760356175612023B361F561304617
:10283400FFF7A8FC66637462414E424B3360102379
:102844007360B560F76035617561B561F5613046F7
:10285400FFF798FC266374622A4629462620FEF771
:10286400F3FB2620FEF728FC2268D36843F010030C
:10287400D360A6E72E4BDA6942F48022DA61DA6982
:1028840002F480220292029A9A6942F008029A6142
:102894009B6903F008030393039B4FF48063049341
:1028A4000223059303230793274E04A93046FEF71A
:1028B400AFFC4FF4006304930025059501230693B0
:1028C40004A93046FEF7A4FC204E214B336075600A
:1028D400B5608027F760356175612023B361F561C8
:1028E4003046FFF74FFC666374621A4E1A4B33602E
:1028F40010237360B560F76035617561B561F5618A
:102904003046FFF73FFC266374622A462946272097
:10291400FEF79AFB2720FEF7CFFB2268D36843F02B
:102924001003D3604DE700BF00440040004800405E
:102934000010024000080140800200206C000240A8
:10294400C402002080000240000C01400803002063
:10295400300002404C0300201C0002402DE9F04FDF
:1029640089B0864B9A6942F004029A619A6902F02E
:1029740004020192019A9A6942F008029A619A69E2
:1029840002F008020292029A9A6942F010029A61D5
:102994009B6903F010030393039B4FF00009CDF8E8
:1029A4001490CDF81890022707974FF0200ACDF81D
:1029B40010A0734E04A93046FEF72AFC402304936A
:1029C40004A93046FEF724FC4FF0800BCDF810B07C
:1029D40004A93046FEF71CFC4FF480620492694C53
:1029E40004A92046FEF714FC4FF40063049304A9E1
:1029F4002046FEF70DFC4FF48055049504A92046AB
:102A0400FEF706FC4FF00108CDF81880049505F197
:102A1400804505F5784504A92846FEF7F9FBCDF86D
:102A24001890049704A92846FEF7F2FBCDF8148009
:102A34004FF00409CDF8109004A93046FEF7E8FBE6
:102A4400102104910DEB010001462846FEF7E0FB3E
:102A5400CDF810A004A801462846FEF7D9FB0323AD
:102A64000593CDF8108004A801462046FEF7D0FB5C
:102A7400CDF8108004A801462846FEF7C9FB0820BB
:102A840004900DF1100C61462046FEF7C1FB04973B
:102A94000DF1100C61462046FEF7BAFB102104919B
:102AA40069442046FEF7B4FBCDF810A004A92046E3
:102AB400FEF7AEFBCDF8109004A92046FEF7A8FB64
:102AC4000820049004A92846FEF7A2FBCDF8109034
:102AD40004A92846FEF79CFB05974023049304A908
:102AE4002046FEF795FBCDF810B004A92046FEF76A
:102AF4008FFB4FF48079CDF8109004A92046FEF79F
:102B040087FBCDF810B004A92846FEF781FBCDF869
:102B1400108004A93046FEF77BFB049704A93046D5
:102B2400FEF776FBCDF8109004A92846FEF770FB5B
:102B34004FF40073049304A92846FEF769FB4FF48D
:102B44008062049204A92846FEF762FB4FF4005306
:102B5400049304A93046FEF75BFB4FF480430493CF
:102B640004A93046FEF754FB4FF40043049304A930
:102B74003046FEF74DFB09B0BDE8F08F001002406F
:102B8400000C0140001001402DE9F04F99B07B4B3F
:102B94009A6942F400629A619A6902F400620192AD
:102BA400019A9A6942F400529A619B6903F40053B2
:102BB4000293029B724EDFF8CC91C6F80090002479
:102BC40074604FF0200AC6F808A04FF4FA6BC6F8F8
:102BD4000CB034617461B4613046FEF795F810238B
:102BE4001693179416A93046FEF7C3F960230F9382
:102BF4001094119408271297139414944FF40072AC
:102C0400159222460FA93046FEF7D0F804220FA9E8
:102C14003046FEF7CBF83A460FA93046FEF7C6F821
:102C24004FF4006108914FF4806009900A943025B4
:102C34000B950C940D940E940DEB0A0C61463046E2
:102C4400FEF76BF9504DDFF84481C5F800806C60E5
:102C5400C5F808A0C5F80CB02C616C61AC612846BD
:102C6400FEF752F8CDF858A0802317930DF1580CB5
:102C740061462846FEF77DF904940523039303A9CE
:102C84002846FDF7D5FF5023C8F8243060230F935E
:102C9400109411941297139414944FF40072159293
:102CA40022460DF13C0C61462846FEF77FF80422CB
:102CB4000DF13C0C61462846FEF778F83A460DF1D2
:102CC4003C0C61462846FEF771F84FF40061089108
:102CD4004FF4806009900A9430230B930C940D9464
:102CE4000E940DEB0A012846FEF717F9D8F8443084
:102CF40023F40043C8F84430D9F8443023F40043A3
:102D0400C9F8443021462846FEF7CCF80421284669
:102D1400FEF7C8F839462846FEF7C4F82146284687
:102D2400FEF7E9F804212846FEF7E5F83946284677
:102D3400FEF7E1F821463046FEF7B4F804213046A8
:102D4400FEF7B0F839463046FEF7ACF82146304677
:102D5400FEF7D1F804213046FEF7CDF83946304667
:102D6400FEF7C9F82B6801221A633268136843F02E
:102D74000103136019B0BDE8F08F00BF00100240DA
:102D8400D0030020002C01409003002000340140B7
:102D94002DE9F04387B0434EB36943F40073B36144
:102DA400B36903F400730093009B3F4C3F4B2360D3
:102DB4004FF48073A3600025E56065614FF4402300
:102DC400E36165604FF00508C4F810802046FEF703
:102DD400A5FD374A536843F4802353604FF4C0235E
:102DE400059305A92046FEF7EDF804950B270297F5
:102DF4004FF00109CDF80C9002A92046FEF712FC11
:102E0400CDF8109002950223039302A92046FEF701
:102E140009FC0E2302930323039302A92046FEF721
:102E240001FC0C2302930423039302A92046FEF71A
:102E3400F9FB0723049310230293CDF80C8002A915
:102E44002046FEF7EFFB2268936843F4000343F443
:102E540080739360936843EA09039360736943EA58
:102E640009037361736903EA09030193019B114B1D
:102E74009D60C3F80C80104A1A61104A5A6140F6EA
:102E8400A2229A609A6842EA09029A602A4629466E
:102E94003846FEF7D9F83846FEF70EF907B0BDE814
:102EA400F08300BF001002402002002000240140F3
:102EB40000000140000002404C2401400C020020AC
:102EC400F0B585B0274B9A6942F480629A619B6998
:102ED40003F480630093009B234C244B23604FF442
:102EE4008073A3600025E56065614FF46023E361AE
:102EF4006560052626612046FEF710FD03950A232A
:102F040001930125029501A92046FEF78BFB039549
:102F14000D2301930227029701A92046FEF782FBA5
:102F24000F2301930325029501A92046FEF77AFB9E
:102F34000197042302930DEB03012046FEF772FB75
:102F44000195029601A92046FEF76CFB23689A6856
:102F540042F480729A609A6842F001029A6005B065
:102F6400F0BD00BF001002405002002000280140C4
:102F740000B583B001904FF47A73012201A903488C
:102F8400FEF7DFFE019803B05DF804FB1004002097
:102F940070B50C461646002504E014F8010BFFF743
:102FA400E7FF0135B542F8DB304670BD70B5204C03
:102FB400002384F8FB3084F8FA30022284F8F920E4
:102FC400012684F8FD6042F6E062A4F8CE204FF4B6
:102FD4007A51A4F8DA1084F8FE304FF47A63A4F836
:102FE400D0304FF4C873A4F8CC30A4F8E010A4F89F
:102FF400E220104D4FF480722146284603F040FA37
:1030040085F8FA600C4804600C4BC3600C4B4360B9
:103014000C4B83600C4C25600C4BE3600C4B6360E1
:103024000C4BA36003F082F9204603F07FF970BDD6
:1030340060000020D8050020B805002060040020AE
:10304400D8060020F8060020C80500200C05002042
:10305400E8060020080700200C4B93F8FE301BB94B
:103064000B4B93F8FE3043B10A4B4FF47A721A803B
:10307400094B4FF618421A807047064B4FF47A7288
:103084001A80054B4FF618421A80704760000020E2
:10309400D805002052040020540400200268D3689C
:1030A40023F48073D3600268536923F001035361EE
:1030B4007047000010B5084B00221A70082405E080
:1030C400064B1C706420FEF799FA013C002CF7DAD9
:1030D400024B00221A7010BD8F07002090070020B9
:1030E400034B1870034B1970034B1A70704700BFE1
:1030F4008F070020900700209207002038B5002594
:10310400044B1D70044C20704FF4FA70FEF776FAED
:10311400257038BD8F0700209007002038B50025A2
:10312400044B1D70044C20706420FEF767FA257070
:1031340038BD00BF8F07002090070020094BB3F96A
:103144000830094AB2F908209B1A03EBD37343F3FE
:103154004F03064A1380002BB8BF5B42044A138016
:10316400704700BFF8060020080700205807002019
:103174005A07002070B5054614461B4B83FB050215
:10318400E817C0EBE21083FB0423E217C2EBE3135E
:1031940098420BD0144A82FB012CCA17C2EBEC12E2
:1031A400934203D0A54201DC8C4205DA0F4803F0B8
:1031B4007DF90026304670BD904210D00C4803F0D3
:1031C40075F90226642DF5DD40F69A739C42F1DC14
:1031D400084803F06BF90220FFF790FFEAE706487E
:1031E40003F064F90126EDE71F85EB510075000833
:1031F400187500082C750008087500082DE9F043BF
:1032040083B0FFF799FA6B4C40226B492046FEF7D6
:1032140007FE2046FFF742FFFDF748F801F036FBB2
:103224000DF10601654B188801F00AFBBDF8062074
:1032340041F201039A4201D0002493E05F4E01A9B8
:10324400708801F0FDFABDF904305D4DA5F8CE306B
:103254005C4CA4F8CE3001A9B08801F0F1FABDF9B4
:103264000430A5F8DA30A4F8DA300025002D7BD13B
:10327400EC00E31C514E01A936F8130001F0E0FA0A
:103284009DF80430621B504F07EB42073B71231D2E
:1032940001A936F8130001F0D3FABDF90430FB801C
:1032A400631D01A936F8130001F0CAFABDF9043010
:1032B4003B81A31D01A936F8130001F0C1FABDF941
:1032C40004307B81E31D01A936F8130001F0B8FA3C
:1032D4009DF80430DFF8F480671B08EB47073B7167
:1032E40005F101094FEAC90301A936F8130001F0F9
:1032F400A7FABDF90430FB8004F1090301A936F8EB
:10330400130001F09DFABDF904303B8104F10A0376
:1033140001A936F8130001F093FABDF904307B815A
:103324005FFA89F5A2E72546C4EBC403264A02EBFB
:103334004303597903291CD0C4EBC403224A02EB8A
:1033440043031971C5EBC503204A02EB43035A79C1
:10335400032A1CD0C5EBC5051C4B03EB45052A719C
:103364000134E4B2002CDED0FCF7B4FF03B0BDE8B6
:10337400F083C4EBC40602EB4606B6F90A20B6F99C
:103384000810B6F90600FFF7F5FE3071DAE70F4EC4
:10339400EF00C5EBC50306EB4303B3F90A20B3F909
:1033A4000810B3F90600FFF7E5FE7D1B06EB4506A2
:1033B4003071D5E710040020180700200400002015
:1033C400D8050020600000202C0000203C000020D4
:1033D40090F804C0BCF1010F05D0BCF1020F17D066
:1033E400002343807047B0F90030B0F906C0A3EB66
:1033F4000C0302FB03F3B0F90A10A1EB0C0193FBDD
:10340400F1F39A4202DB23EAE37212B2428070477C
:1034140030B5B0F90030B0F908C0B0F90CE0ACEB4D
:103424000E04A34206DD0CEB0E05AB4202DA0023C8
:10343400438012E0634511DDF444A3EB0C0302FB6B
:1034440003F3B0F90A10A1EB0C0C93FBFCF39A42C2
:1034540002DB23EAE37212B2428030BD1B1B01FB84
:1034640003F3B0F90620141B93FBF4F3002B02DDE5
:1034740000214180F1E79942B8BF194609B2F8E743
:10348400094B1B7873B9094AB2F80EC0C3EBC300E9
:103494004100074820F801C0518AC3EBC3035A0016
:1034A400044B9952704700BF570400200C020020BF
:1034B4002C0000203C00002008B5354B1B78002B65
:1034C4003BD13449C3EBC30042008818895EB0F98C
:1034D4000620C83A914224DBC3EBC30250002D4AB4
:1034E4000244B2F90A20C83291421ADC2A49C3EBD9
:1034F400C30042008818895EB0F90620C83A914298
:103504000FDBC3EBC3025000234A0244B2F90A2082
:10351400C832914205DC002220490A7020490A8001
:103524000BE01F490A88501C0880632A05D91B4AEE
:10353400012111701A4A64211180184A12782AB99B
:10354400184A127812B9184A1278A2B10021174AFF
:103554001170C3EBC30250000E4A024451800E4A5C
:103564000244518013B1124A12784AB113B9104B74
:103574001B784BB908BD0F4A11780C4A1170F1E75A
:103584000820FFF7CBFDF5E71220FFF7C7FDF1E7B1
:10359400570400202C0000203C0000205C07002081
:1035A4004A0000205D070020500400202A0000206B
:1035B400580400202B00002070B5FFF761FF0F4E68
:1035C40033780F4D0F4CC3EBC3035800B5F90020FB
:1035D400B4F900100C4B1844FFF7FAFE3378C3EB30
:1035E400C3035800B5F90020B4F90010074B184480
:1035F400FFF7EEFEFFF760FF70BD00BF5704002029
:1036040052040020540400202C0000203C00002020
:1036140030B591B0124B5B6B1B685C68C4F140041D
:10362400104B1B68A34200D005D20E4B1C60402CEB
:1036340012D011B030BDC3F140052A460A491944DD
:10364400684602F01DFF002CEFD0224606490DEB20
:10365400050002F015FFE8E700221A60E9E700BF61
:10366400100400205C040020180700202DE9F84312
:10367400374B1B7813B9374B1B78C3B1FCF716FED5
:10368400354C41F20101208801F08EFA334DB5F931
:10369400CE1089B2608801F087FAB5F9DA1089B2E0
:1036A400A08801F081FA00251DB1FCF713FEBDE8E6
:1036B400F883EC00E01C621B5300294F1F44264E84
:1036C400397936F8100001F06FFA231DB7F90610A6
:1036D40089B236F8130001F067FA631DB7F90810D0
:1036E40089B236F8130001F05FFAA31DB7F90A1086
:1036F40089B236F8130001F057FAE21DDFF864804E
:10370400631B5F004744397936F8120001F04CFA24
:1037140005F101094FEAC903B7F9061089B236F871
:10372400130001F041FA04F10903B7F9081089B252
:1037340036F8130001F038FA04F10A02B7F90A1056
:1037440089B236F8120001F02FFA5FFA89F5ABE777
:1037540059040020560400200400002060000020CA
:103764002C0000203C00002010B500240C4B1C70E1
:103774000C4802F021FF0C4B1C700C4B1C7005E034
:103784000B4B1C706420FDF739FF0134072CF7DD67
:10379400FFF76CFF002220210648FDF760FEFEE7DC
:1037A400A40700203C7500088F0700209207002022
:1037B400900700200008014010B414682313C3EBE1
:1037C40000104FEAE07CA1FB000301FB0C3100096F
:1037D40040EA01700911B0F1004F71F1000308DAF9
:1037E4000346B0F1004F71F1FF3104DA4FF00043AA
:1037F40001E06FF000431C44146010BC70470000EB
:103804002DE9F04F8BB0FFF799FC774BB3F90030FB
:10381400052B02DD0BB0BDE8F08F744802F0CCFE3E
:10382400FFF72EFE724B1B78C3EBC301714A32F9CA
:10383400112012040992704A32F9112012040892DC
:103844005BB1002307930025DFF8B0812E4647F6CD
:10385400FF79C2462F46CB462FE064230793F2E755
:10386400FFF70EFE624D2B78C3EBC30309AA41F6A2
:103874009911604830F91300FFF79EFF2B78C3EBD2
:10388400C30308AA41F699115B4830F91300FFF706
:1038940093FFBDF92670BDF92260BB45A8BFBB46A6
:1038A400BA45B8BFBA46B145A8BFB146B045B8BFDE
:1038B400B0460520FDF7A2FE254602215048FDF73B
:1038C400C7FD20B96C1CA4B2B5F57A6FC8D34D48B6
:1038D40002F0ECFD524639465846FFF74BFC444B88
:1038E4001B78C0B2C3EBC301424A02EB4102107120
:1038F4005279904201D0032A5FD1079883443D4A0C
:10390400C3EBC30102EB4101A1F806B00F81AAEB9E
:10391400000AA1F80AA03C4802F04EFE3B4802F01F
:10392400C5FD424631464846FFF724FC304B1B7820
:10393400C0B2C3EBC301304A02EB410210715279A9
:10394400904201D0032A43D1079881442A4AC3EB09
:10395400C30102EB4101A1F806900E81A8EB000817
:10396400A1F80A80284802F027FE294B01221A7088
:103974001F4B1B78C3EBC3021E4901EB4201B1F993
:103984000A401D4800EB42021579B2F90660B2F90B
:103994000820C3EBC30300EB4303B3F90A300493D9
:1039A4000392029601950094B1F90830B1F906200A
:1039B4000979184802F07AFD2CE7C3EBC3030D4ADA
:1039C40002EB430300221A71134802F0F5FDA5E748
:1039D400C3EBC303084A02EB430300221A710E48E7
:1039E40002F0EAFDC1E700BF5A0700205475000841
:1039F400570400202C0000203C0000200080FFFF22
:103A0400000801407475000880750008907500086E
:103A1400590400209C7500088875000870B586B0AC
:103A2400FFF78CFB5A4BB3F90030052B01DD06B0D0
:103A340070BD584802F0C0FD574B1B78C3EBC3015F
:103A4400564A32F9112012040592554A32F91130BE
:103A54001B0404930024534B1C701CE0FFF710FD5F
:103A64004D4C2378C3EBC30305AA41F699114B4887
:103A740030F91300FFF7A0FE2378C3EBC30304AAB5
:103A840041F69911464830F91300FFF795FE0520D9
:103A9400FDF7B4FD2C4602214348FDF7D9FC20B9BB
:103AA400631C9DB2B4F5FA6FD8D3059A3A4B1978D2
:103AB400C1EBC103394800EB4300B0F90640A2EB67
:103AC4000443B0F90A00001B93FBF0F3B3F5803F05
:103AD40057DA41F699108342B8BF03469BB2049D5E
:103AE400C1EBC1042E4800EB4404B4F90660A5EB15
:103AF4000640B4F90A40A41B90FBF4F0B0F5803FF3
:103B040042DA40F6CC44A042B8BF204680B2C1EBB2
:103B1400C104224E06EB440424796CB140F2EE2435
:103B240003FB04F42413214EA6F8CE40204EA6F83D
:103B3400CE401C4C01262670C1EBC101184C04EB8D
:103B44004101097971B14FF47A7100FB01F1091354
:103B5400164CA4F8DA10164CA4F8DA10114C21789B
:103B6400023121701249B1F9CE40B1F9DA10039152
:103B74000290019500940B4909780E4802F096FCD6
:103B840055E74FF6FF73AAE74FF6FF70BFE700BF94
:103B94005A070020F8750008570400202C00002064
:103BA4003C0000205604002000080140D8050020F5
:103BB400600000202476000838B502212248FDF771
:103BC40047FCD0B10025214B1D7000E025460221A1
:103BD4001D48FDF73DFC58B10A20FDF70FFD6C1C94
:103BE400A4B2B5F5FA7FF1D10520FFF797FAEDE716
:103BF400B5F5FA7F02D2082D24D838BD4FF47A7077
:103C0400FDF7FCFC02211048FDF722FC58B91020F6
:103C1400FFF774FAFFF7F4FD0520FFF77FFAECE7EE
:103C24000A20FDF7EBFC02210748FDF711FC0028F0
:103C3400F6D10820FFF762FAFFF7F0FE0520FFF740
:103C44006DFADAE7FFF790FD00080140A4070020B1
:103C540003019BB210881B1A1BB28B4204DC49423D
:103C640009B28B4200DB1946014411807047000001
:103C740010B54FF47A6E0EFB00F04FEAA03C0EFB39
:103C840001F14FEAA13ECEEBA030B0F5004F26DAA9
:103C940017498842B8BF0846011111801548B0F988
:103CA400000081421EDC144CB4F90040A142B8BFAC
:103CB400214611800CEB0E02B2F5004F14DA0C49C8
:103CC4008A42B8BF0A4612111A80904205DB0A499B
:103CD400B1F900009042B8BF1046188010BD47F6F5
:103CE400FF70D9E70146E4E747F6FF72EBE700BF50
:103CF4000080FFFF520400205404002030B597B028
:103D040002250C950123109310231193139500247D
:103D140014944FF4601315930CA8FCF77FFB0F2346
:103D24000793089509944FF480630A930B942946EA
:103D340007A8FCF799FD01954FF48043039301A86C
:103D4400FDF798FBFCF74EFE084BA3FB00308009FF
:103D5400FDF7BEF90420FDF7CFF9224621464FF0C6
:103D6400FF30FDF771F917B030BD00BFD34D6210BD
:103D740070B588B0FDF722FC364CA36943F001030B
:103D8400A361A36903F001030693069B0320FDF7D7
:103D940049F9002211466FF00B00FDF755F9002296
:103DA40011466FF00A00FDF74FF9002211466FF03B
:103DB4000900FDF749F9002211466FF00400FDF7F0
:103DC40043F9002211466FF00300FDF73DF900228C
:103DD40011466FF00100FDF737F9002211464FF04C
:103DE400FF30FDF731F9FFF789FF636923F0010321
:103DF4006361FEF7B3FDFEF7C7FEFEF7C9FFFFF7E9
:103E04005FF8FFF7D3F8012220211348FDF727FBC1
:103E1400FFF722F9FFF7F2F91048FDF7E5FC104827
:103E2400FDF7E2FCFFF746F9012204210D48FDF7F6
:103E340016FB0D4A138A1B040793138A02E00A2017
:103E4400FDF7DCFB02210448FDF702FB0028F6D154
:103E5400EEE000BF001002400008014020020020F4
:103E640050020020000C01400C020020B14CB24D65
:103E74002B78C3EBC303B14A02EB43032246C821A8
:103E8400B3F90200FFF7E4FEAD4E2B78C3EBC30396
:103E9400AC4A02EB43033246C821B3F90200FFF7F0
:103EA400D7FEA94DB4F900002A4641F69911001134
:103EB400FFF782FCA54CB6F90000224641F69911A1
:103EC4000011FFF779FCB5F90210A14B1980B4F980
:103ED4000200A04B1880000109019F4C9F4D23460E
:103EE4002A4609B200B2FFF7C3FEB5F900305B42BF
:103EF4009B4A1360B4F900209A4B1A609A4B188AB3
:103F040007AA40F28F2180B2FFF756FCBDF91E00CC
:103F1400A0F2776303EB831203EB4203934A82FB21
:103F24000312DB17A3EB620303F5B3731BB2904ACE
:103F34001380904AB2F9002040F6827101FB02F22C
:103F440001F1AF4101F5B30101F24F1181FB021CF4
:103F5400D117C1EB6C2109B2874A1180874A928933
:103F6400C2EBC23252001FFA82FC854C2280854A81
:103F74009289C2EBC232520094B2834D2A800CEB78
:103F84000402824C2280824A1468824AA2FB0452B0
:103F9400D20802EB820202EB8202944200F08F808C
:103FA400FFF70AFE734BB3F9003040F2F14293423B
:103FB40005DC794AB2F90020132A40F39C80774A41
:103FC400927922B9764A9279002A00F09780754B4B
:103FD40000221A70012218211046FFF781F85E4B67
:103FE400B3F90030002BB8BF5B429BB2322B09D827
:103FF4005A4BB3F90030002BB8BF5B429BB2322B53
:1040040040F2FB80684B00221A60674B1A68674BCA
:104014009A4201D9FFF7A8FB474B1A78644B1A70F0
:10402400644B1A68644B1A60594A1368013313606D
:10403400604B1B68604A12689B1A502BF8D9FFF733
:10404400BBFAFFF77BF8574B1B78002B7FF40EAFBE
:10405400524B9B79002B7FF409AF514B9B79002B7A
:104064007FF404AF344B1A78C2EBC201334B03EB39
:104074004103B3F9023031339BB2622B3FF6F6AE03
:10408400304B03EB4102B2F9023031339BB2622B65
:104094003FF6ECAE0620FFF741F80420FFF73EF8A8
:1040A4006420FDF7ABFA0023284A1360264A136004
:1040B4003C4B01221A70414802F07EFAD6E61E4AB1
:1040C4001278C2EBC205284CA489A4B204930390CD
:1040D40002910194214BB3F9003000931E4BB3F9C4
:1040E4000030184931F91520144931F915103448B4
:1040F40002F0DCF954E7FFF737FB70E7314A127836
:104104008AB9314A1278002A62D1304A1278002AD8
:1041140064D140F22252934266DC06220A21002036
:10412400FEF7DEFF5BE7012218210220FEF7D8FF2D
:1041340055E700BF8C070020570400202C00002006
:10414400840700203C00002088070020800700200E
:10415400860700207E070020680700206A070020E9
:10416400B0070020AC0700200C0200206B4CA40711
:10417400620700204C00002060070020D8060020C1
:1041840074070020E80600207C0700206C0700204C
:10419400780700201F85EB515A070020F8060020FD
:1041A40008070020A40700207007002080380100C1
:1041B4005804002094070020640700208876000833
:1041C400A07600085C0700205D0700205004002052
:1041D400012218210320FEF783FF00E701221821A2
:1041E4000420FEF77DFFFAE6002211461046FEF792
:1041F40077FF044B00221A70F1E6034A1368013377
:10420400136002E75E07002070070020994B02222A
:104214005A60994B1B88B3F5FA6FC0F0A08010B5B3
:10422400964B1A68964BA3FB02139B094FF47A71C1
:1042340001FB1323002B00F0D380924B9A8891B298
:10424400914A1288521A91490A80DA8891B2904AA6
:104254001288521A8F490A805A8891B28E4A12885B
:10426400521A12B28D490A80198988B28C49098878
:10427400091A8C480180598988B28B490988091A1E
:104284008A4801801B8899B2894B1B885B1A1BB230
:1042940088490B80002AB8BF524292B240F2523190
:1042A4008A4204D8844A1278002A40F0A7808349BD
:1042B4004A6C22F400424A64002BB8BF5B429BB2B2
:1042C40040F25232934204D87B4B1B78002B40F0CF
:1042D4009B807B4A536C23F400435364674A1368FE
:1042E40001331360774B1A78002A00F09380634BF4
:1042F4001B687549A1FB03131B0B74490978013131
:10430400B3FBF1F001FB1033002B40F08380704BC2
:104314001B787BB96E4B012119706E490B78013300
:10432400DBB20B706C49097802318B4202DD694BB8
:1043340001211970514B1B68B3FBF2F102FB1133DD
:10434400002B6AD1634B1A78634B1B789A4201D9CC
:10435400002B62D110216148FDF787F85DE001333D
:10436400454A1380474A938899B24748B0F90030C8
:104374000B4403EBD3735B100380D38899B2444896
:10438400B0F900300B4403EBD3735B100380138943
:1043940099B24348B0F900300B4403EBD3735B107C
:1043A4000380538999B24048B0F900300B4403EBC1
:1043B400D3735B100380538899B23748B0F9003047
:1043C4000B4403EBD3735B10038013889AB2384910
:1043D400B1F90030134403EBD3735B100B807047C7
:1043E400284B98893E4C224640F28F2180B2FFF739
:1043F400E3F9B4F902203B4B1A801EE72F494A6CBB
:1044040042F400424A6457E72D4A536C43F4004394
:10441400536463E72E4B1B78FBB9334B93F8F930A5
:10442400022B23D0314B00221A80314B1B78002BF6
:1044340040F00D812E4B01221A701F4B1B78002B6C
:104444005CD02C4B9B79002B40F002812A4B9B794A
:10445400002B00F0FF80002251E0002210211F48B1
:10446400FCF7FDFF1A4B00221A70D6E71F4B6E2291
:104474001A80DAE700000240A60700209407002013
:10448400D34D62100C020020580000209A0700202F
:104494005A0000209C0700205400002098070020A8
:1044A4005C000020A00700205E000020A20700207E
:1044B400560000209E070020A4070020003401407D
:1044C400002C0140900700205917B7D19207002013
:1044D40093070020910700208F0700200008014067
:1044E400500000204C00002060000020A80700209D
:1044F4008E070020F8060020080700200022D2B210
:104504006D4B1A706D4B996811F0200F0CBF01248C
:104514000024996811F0400F0CBF012000209B6813
:1045240013F0800F0CBF01210021654B1A70654AFE
:1045340012785A70644A12685A801C7158719971C1
:10454400624A12881A81624A12885A81614A128820
:104554009A81614B186800F017FE604BB3F90010A4
:10456400B3F90220B3F904C001F2E7345C4BB3F9A8
:104574000030C3F5FA6084426EDB81B2594C61634A
:1045840002F2E73188426FDCC3F5FA6292B2554910
:104594008A630CF2E73290426EDCC3F5FA639BB295
:1045A400504AD363504B9A6812F4806F0CBF0120B9
:1045B40000209A6812F4006F0CBF012100219B684F
:1045C40013F4805F0CBF01220022484B3A4C24783C
:1045D4001C703C4C24785C70454C24685C801871D9
:1045E40059719A71434A12881A81434A12885A812E
:1045F400424A12889A81424B186800F0C5FD414B2B
:10460400B3F90010B3F90220B3F904C001F2E7349E
:10461400334BB3F90030C3F5FA60844234DB81B222
:10462400394C616302F2E731884235DCC3F5FA6242
:1046340092B235498A630CF2E732904234DCC3F516
:10464400FA639BB2304AD363304B00221A7010BD18
:10465400002254E7012252E701F57A74A34201DCF7
:10466400A1B28BE799B289E702F57A718B4201DC3A
:104674008AB28CE79AB28AE70CF57A72934201DC2B
:1046840093B28DE79BB28BE701F57A74A34201DC08
:10469400A1B2C5E799B2C3E702F57A718B4201DC96
:1046A4008AB2C6E79AB2C4E70CF57A72934201DC87
:1046B40093B2C7E79BB2C5E7A5070020000C0140F1
:1046C400D80600202A000020AC0700209A0700200A
:1046D4009C0700209807002080760008F806002038
:1046E400A80700200034014000100140E806002023
:1046F400B0070020A0070020A20700209E0700208A
:104704008476000808070020002C01408E07002052
:1047140000E00430064B984207D203889BB24FF660
:10472400FF729342F5D0002070470120704700BF0C
:1047340000080108114B1B889BB2114A128892B2DF
:1047440088B1012813D13AB94EF6EE618B4201D0FB
:1047540040230DE013460BE063B94EF6EE618A4246
:1047640006D1402304E01BB132B9402300E000230A
:1047740018467047AB23FBE7AB23F9E700000108B9
:104784000000020870B506460D460120FFF7D2FF6F
:10479400AB2821D000F580342034E40201300F4BE3
:1047A40003EBC02C644516D22368B3F1FF3F01D05C
:1047B4000434F7E72A46002321460120FBF7C8FD0D
:1047C40008B180B208E032460023A11C0120FBF7A7
:1047D400BFFD80B200E0802070BD00BFFFFF000875
:1047E40010B586B00023059301931248039001236A
:1047F4000493FFF78DFF28B905A901A8FCF7B6FCBF
:10480400044638B9002200230A490120FBF7A0FD21
:10481400044610B1204606B010BD074B0393074869
:10482400FFF776FF0028F5D105A901A8FCF79EFC47
:104834000446EFE7000001080080010800000208B8
:1048440038B504460D460020FFF774FFAB2819D095
:1048540000F5803C0CF1200C4FEACC2C01300A4BC3
:1048640003EBC0230CF102029A420AD21A8892B2D4
:10487400A24201D0043BF5E733F8023C2B80002030
:1048840000E0012038BD00BFFEFF0008F0B587B08E
:10489400002205928C4B1E88B6B28C490D88ADB2AD
:1048A40001920393012304934EF6EE639E4240D09B
:1048B4004FF6FF739E420BD0002E00F0A280FFF74C
:1048C4008FFF002840F0FE800025284607B0F0BD89
:1048D40045B14EF6EE639D4213D0FFF781FF30BB26
:1048E4000025F2E77848FFF713FF04460028ECD1CF
:1048F40005A901A8FCF73AFC08B92546E5E785B205
:10490400E3E77148FFF704FF20B905A901A8FCF704
:104914002DFC40B9002200236C490120FBF718FD4F
:1049240018B90025D1E785B2CFE785B2CDE785B2C6
:10493400CBE755B34FF6FF739D4248D0FFF750FFC6
:1049440000285CD10025C0E727B20CE00134A4B2F2
:10495400122C1ED85C4BDB889BB226465C4A32F88C
:1049640014008342F0D0BE42F0D05A49FFF768FFEA
:104974000128EBD0574B1988554B33F81600FFF735
:1049840001FF0028E2D005469FE72C464FF0FF3791
:10499400DEE7002200234C490120FBF7D9FC08B1D3
:1049A40085B292E7002301934B4B039301230493B5
:1049B4004648FFF7ADFE0446002886D105A901A8A4
:1049C400FCF7D4FB08B925467FE785B27DE7424B67
:1049D40003933E48FFF79CFE20B905A901A8FCF704
:1049E400C5FB40B90022002337490120FBF7B0FC86
:1049F40018B9002569E785B267E785B265E785B22E
:104A040063E73DB14FF6FF739D420AD034464FF041
:104A1400FF371CE0FFF7E4FE00283FF456AF85B2F1
:104A240053E72D4B03932948FFF772FE054608B15F
:104A340035464AE705A901A8FCF798FB00283FF48E
:104A440044AF85B241E727B20CE00134A4B2122C82
:104A54001AD81E4BDB889BB225461D4A32F8140037
:104A64008342F0D0BD42F0D01A49FFF7E9FE012895
:104A7400EBD0184B1988164B33F81500FFF782FE5C
:104A840005460028E1D020E7002200230F49012039
:104A9400FBF75EFC08B185B217E7002301930A48CF
:104AA400039001230493FFF733FE054608B135460E
:104AB4000BE705A901A8FCF759FB00283FF405AF53
:104AC40085B202E785B200E7000001080000020891
:104AD40004000020B4070020008001082DE9F04103
:104AE40086B005460E4600200590FFF723FE4028B9
:104AF40011D000284BD1DFF89C80274F4EF6EE6290
:104B0400002339460120FBF723FC40B184B2204640
:104B140006B0BDE8F081DFF884801E4FEEE7314631
:104B24002846FFF72FFE044610B1F0E70134A4B283
:104B3400122C14D81A4B33F81400A842F6D0194991
:104B4400FFF77EFE0128F1D0164B1988144B33F879
:104B54001400FFF717FE0028E8D00446D7E7002327
:104B64000193CDF80C800123049305A901A8FCF757
:104B7400FDFA08B184B2CAE70022002339460120B5
:104B8400FBF7E6FB08B984B2C1E784B2BFE7AB2404
:104B9400BDE700BF00000108000002080080010812
:104BA40004000020B407002038B504460D46FFF782
:104BB400E9FD802800D038BD29462046FFF78EFF46
:104BC400F9E77047FEE7FEE7FEE7FEE77047704748
:104BD400704708B5FCF704FDFCF79FFA08BD000018
:104BE40008B50248FDF70CFC08BD00BF4C030020CB
:104BF40008B50248FDF704FC08BD00BF0803002007
:104C040010B582B00A4C2046FDF70EFA2368DA6824
:104C140012F0100F01D102B010BD002201921A68E7
:104C240001925B680193019BFEF7F2FCF3E700BF7E
:104C340010040020884209DD401A80B2B0FBF2F073
:104C4400984201D2C0B27047D8B270470020704772
:104C5400884209D9401A80B2B0FBF2F0984201D2DE
:104C6400C0B27047D8B2704700207047CB0FB3EB87
:104C7400D07F07D090FBF1F301FB13031BB14FF07E
:104C8400FF3300E0002390FBF1F0184470470180EB
:104C940070473AB9B3F90020104400B2884203DAED
:104CA400188070470022F7E71980704700230360DB
:104CB4004360704730B48446B0F900401D68A4EBEB
:104CC4002544B4F5004F04DA14F5004F03DA0F4C11
:104CD40001E047F6FF7404FB0154201410801C60AB
:104CE400BCF902005C68A0EB2440B0F5004F04DA84
:104CF40010F5004F03DA054801E047F6FF7000FBAA
:104D0400014001145180586030BC70470080FFFF9F
:104D14000180704710B4019C42B92288104480B2CB
:104D24001880884204D2208010BC70470022F5E726
:104D34002180F9E713781B1A18BF01230B70107038
:104D4400704710B5044600210430FFF7E1FF00214D
:104D5400A01CFFF7DDFF10BD2DE9F04184B006462D
:104D6400884617461D460A9C22460DF10D01FFF7A1
:104D7400E1FF0EB1A3794BB10EB9A379EBB9A379D5
:104D84002B702B78A37104B0BDE8F081231D009330
:104D94000DF10E039DF80D2041460120FFF7BAFFE7
:104DA400BDF80E30434503D8A37923B1012300E0B5
:104DB40001232B70E5E70023FBE7A31C00930DF10F
:104DC4000E039DF80D2039460120FFF7A3FFBDF81F
:104DD4000E30BB4203D8A37913B1012300E00023B2
:104DE4002B70CEE741607047002303604160704739
:104DF40030B5BDF90CE0049D059C00FB01F10911DF
:104E04001CD4002906DD6FF00040401AD4F800C01D
:104E140084451CDC20680844616801444FEA213C55
:104E240041F30F30984215DD2B802B88A3EB0C0344
:104E34001BB203FB02F22260616030BDC1F100408D
:104E4400D4F800C08445DCDA4FF00040E4E76FF0AA
:104E54000040E1E7704502DAA5F800E0E5E72880C4
:104E6400E3E70123037170470023437101230371B6
:104E74007047000070B5BDF910E0BDF91460069DDF
:104E8400089C00FB02F2002A1CDB002A05DD6FF0FF
:104E9400004CACEB020CAC451BDB02EB050C22799D
:104EA40002B123606379BBB1002325681D4400FB74
:104EB40001F1CB12B1F1806F10DA13F5004F0FDA64
:104EC400284B0DE0C2F1004CAC45DEDD4FF0004C48
:104ED400E5E76FF0004CE2E76346E6E747F6FF7369
:104EE4002A1403EB42025310B2F5803F04DA13F59F
:104EF400004F03DA1B4B01E047F6FF731BB2734507
:104F040018DD079AA2F800E0BCF1000F1ADBBCF12F
:104F1400000FD4BF00220122002B16DB002BD4BFCC
:104F240000210121914213D00023637100232371D6
:104F3400256070BDB34202DA079A1680E4E7079A47
:104F44001380E1E74FF0FF32E6E74FF0FF31E9E786
:104F5400734503DCB34203DB0023E6E70123E4E704
:104F64000123E2E70080FFFF012303717047002360
:104F7400437101230371704770B5BDF910E0BDF9A9
:104F84001460069D089C00FB02F2002A1DDB002A27
:104F940005DD6FF0004CACEB020CAC451CDB02EB06
:104FA400050C22790AB11B0423606379BBB1002389
:104FB40025681D4400FB01F1CB12B1F1806F10DABA
:104FC40013F5004F0FDA294B0DE0C2F1004CAC454C
:104FD400DDDD4FF0004CE4E76FF0004CE1E76346A1
:104FE400E6E747F6FF732A1403EB42025310B2F5C7
:104FF400803F04DA13F5004F03DA1C4B01E047F657
:10500400FF731BB2734518DD079AA2F800E0BCF1E8
:10501400000F1ADBBCF1000FD4BF00220122002BC9
:1050240016DB002BD4BF00210121914213D00023B1
:10503400637100232371256070BDB34202DA079ABD
:105044001680E4E7079A1380E1E74FF0FF32E6E7C2
:105054004FF0FF31E9E7734503DCB34203DB002380
:10506400E6E70123E4E70123E2E700BF0080FFFF56
:105074000123837070470023C3700123837070473A
:1050840070B5BDF910E0BDF91450069E089C00FBF4
:1050940002F2002A15DB002A05DD6FF0004CACEBB0
:1050A400020CB44514DB02EB060CA27802B1238097
:1050B400E3789BB9BCF1000F0DDB002262441314AA
:1050C4000DE0C2F1004CB445E5DD4FF0004CECE7D7
:1050D4006FF0004CE9E74FF6FF72EFE700232288F8
:1050E4001A4412B200FB01F1CB12B1F1806F04DA61
:1050F40013F5004F03DA234B01E047F6FF7303EB8C
:1051040042014B10B1F5803F04DA13F5004F03DA86
:105114001C4B01E047F6FF731BB273451ADD079978
:10512400A1F800E0BCF1000F1CDBBCF1000FD4BF00
:105134004FF0000C4FF0010C002B16DB002BD4BFFA
:1051440000210121614513D00023E3700023A370E3
:10515400228070BDAB4202DA07990D80E2E707991D
:105164000B80DFE74FF0FF3CE6E74FF0FF31E9E764
:10517400734503DCAB4203DB0023E6E70123E4E7EA
:105184000123E2E70080FFFF2DE9F04F95B00568A9
:10519400C4684668876831798A00D2B27379580046
:1051A400C0B20244D2B2B07902445FFA82FB003B3F
:1051B40018BF012394F89AC094F89B20002918BFC3
:1051C40083F00103002818BF83F00103BCF1000F32
:1051D40018BF83F00103002A18BF83F0010394F879
:1051E4009C10003918BF012181EA0302994256D06C
:1051F40094F98E00B54B5B4493F98817CBB294F8BD
:105204008FC0A3EB0C035BB2012B06D013F1050F87
:1052140003D0FF2384F88E3002E0012384F88E301B
:1052240084F88F10B4F98010A4F856101FFA81FE88
:10523400B4F882C0AEEB0C031BB2002B43DBB5F910
:1052440004C09C4543DC012384F8A93094F8A98068
:1052540084F8A28094F98E30834214BF4FF0010C7D
:105264004FF0000C04D094F8A790B9F1000F56D178
:10527400834234D0B4F98A009BB200FB03F3A4F850
:105284007A30A4F88210B4F98630A4F88430B4F9E2
:105294008830A4F88630A4F8881084F8A7C004F1F4
:1052A4004003B5F90A100120FFF7F3FC0C90B5F99F
:1052B4000A30834239DBB4F97A300B93002B30DBAC
:1052C4000B9B079334E0ACEB0E031BB2B7E7B5F9C5
:1052D40006C09C45BADB002384F8A930B6E7B8F1D0
:1052E400000F05D0A889000190FBF1F000B2C3E7DC
:1052F400A889800080B20001B4F88480B4F8869054
:10530400C8441FFA88F8B4F88890C8441FFA88F88B
:10531400C6440FFA8EFE90FBFEF000B2ACE700200C
:10532400AAE75B421BB2079302E000230B930793A7
:10533400B5F9D430079A93420DDC012384F8A830E0
:1053440095F8FB3083B994F8A8205AB394F8A220B6
:1053540052B3002209E0B5F9D230079A9342EFDB49
:10536400002384F8A830EBE70122D2B2089294F823
:10537400A3200D9294F8A4200E92B6F902201201F3
:105384000F9212B20992B6F908204FEA021A46F6B1
:105394003F21B1EB021F09DB4D4A924517DB0FFA9F
:1053A4008AFA05E00022E0E70122DEE746F6402A19
:1053B400B6F90A204FEA021846F63F21B1EB021F64
:1053C40008DB434A904579DB0FFA88F804E0DFF8FC
:1053D40004A1EDE746F64028002B40F09380089B9B
:1053E400002B7BD0B4F956000C9B984200DC03469A
:1053F40094F98E10012964D0344A5A4492F88827CB
:10540400013252B29B0393FBF0F39BB289B201FBCE
:1054140003F31BB203EB823343F38F03002B6FDDE3
:10542400C3EB031343F30F130A9394F9903095F8E5
:10543400F920022A00F086804FF0FF3984F890901A
:10544400994517D0B3B994F998302BB9A4F85230D0
:10545400A4F87830A4F85430FF2384F8983000235B
:10546400A4F87C30A4F87E30A4F85230A4F8543068
:10547400A4F87830B9F1000F40F0388195F8FA308B
:10548400002B40F0AF8044F6E71202FB0AF102FB66
:1054940008F8002959DB00230B44DB13B8F1000F93
:1054A40056DB0022904448F38F384344B3F5004F51
:1054B40051DA13F5004F50DA074B4EE0DFF8148051
:1054C4008AE7024A5A4492F988279BE7E87600085B
:1054D400C195FFFFC095FFFF0080FFFF94F98E3058
:1054E400012B08D0BB4B5B4493F8883701335BB284
:1054F4001B031BB292E7B74B5B4493F98837F7E77A
:1055040000238DE7B6F90E9095F8F83003FB09F9FE
:10551400A9F5F0794FF4B4514846FFF7A7FB80B2E0
:1055240000EB4000C0EB0013DB009BB21B019BB2FD
:10553400A9EB03090FFA89F94FEA89090FFA89F3EC
:105544000A9372E74FF0000978E747F6FF73A3E781
:1055540043F6FF72A6E747F6FF730FFA83F8B42306
:10556400802200210A98FFF765FB9A4B33F910203B
:10557400A4F87C20B43003EB4000B0F90230A4F866
:105584007E3094F9983032780AB94FF0FF3984F8B4
:105594009890994507D033B90022A4F85220A4F872
:1055A4007820A4F85420B9F1000F40F09F80002B1C
:1055B4006FD14246B4F97E3003FB08F848F38F38C4
:1055C4005046B4F97C1001FB0AFA4AF38F3AA8EB6F
:1055D4000A08B8F5004F61DA18F5004F60DADFF811
:1055E400F8815DE0012B1CD044F6E71202FB0AF1BE
:1055F40002FB08F2002941DB00230B44DB135B426E
:10560400002A3EDB4FF00008904448F38F38A3EBA8
:105614000803B3F5004F37DA13F5004F36DA6E4B53
:1056240034E053464146AAEB0802B2F5004F04DACF
:1056340012F5004F03DA684A01E047F6FF7244F6B8
:10564400E71808FB02F8B8F1000F0FDB00229044C2
:1056540048F3CF38C3F1000AAAEB0101B1F5004FBA
:1056640007DA11F5004F06DA5B4904E047F6FF72EA
:10567400EDE747F6FF710FFA81FA70E747F6FF731B
:10568400BBE743F6FF78BFE747F6FF730FFA83F8EB
:1056940065E704F13800FFF709FB8AE747F6FF786E
:1056A400ADF8488000FB03F343F38F3301FB02F2B0
:1056B40042F38F321344B3F5004F04DA13F5004F6D
:1056C40003DA454B01E047F6FF73ADF84A3004F1C5
:1056D400380304F15202B5F8EC1012A8FFF7EAFA05
:1056E400B4F95230002B4CDBA4F8783094F8A33092
:1056F400002B00F0078295F8FD30002B35D094F88C
:105704009D3013F0040F41D001238DF84F30BBF1CD
:10571400070F58D04FF00008BBF1000F08BF08F185
:1057240001089DF84F309B00DBB29844EA89298A2E
:1057340018F0FF0804F12E03009304F1A10314BF31
:1057440001200020FFF708FB04F12C020DF14F01AA
:1057540094F8A100FFF7EEFA9DF84F30002B35D0F6
:1057640087F80680BB7984F89D3094F8A130002B2B
:1057740034D13378002B3DD07378002B3CD10123F6
:105784002DE09BB25B42A4F87830AFE7B4F98C30DB
:10579400002B0CDB327872B1B5F9DC2007998A4210
:1057A4000DDDB5F9DE209A420BDB002304E09BB249
:1057B4005B421BB2EEE700238DF84F30A7E70023CE
:1057C400FAE70123F8E74FF00208A5E794F89D30C3
:1057D400BB71C7E7E87600080080FFFF0123DBB256
:1057E4008DF84F307278022A08D095F8FC1041B336
:1057F400012104E00123F2E70023F0E70121C8B20C
:10580400032A20D00022D1B294F89E2012BB012397
:1058140084F89E30022384F89F30002384F8993062
:1058240095F8F930022B00F09A80099BB3F57A5F62
:1058340000F3108113F57A5F80F2C180AE4B0993B7
:10584400BDE00021DBE795F8FC200AB10022DAE78D
:105854000122D8E794F89F20012A16D0002284F868
:105864009920002BDCD17378012B02D008B90029D0
:10587400D6D0012384F89F30002961D0022384F814
:10588400A030032384F89930CAE743B1002384F895
:10589400A030022284F89F2084F89930C0E794F85D
:1058A400A030012B12D0022B27D0012384F8993089
:1058B40009B90028B4D0002384F8A030A1B302238E
:1058C40084F8A030032384F89930A9E7022384F8EC
:1058D40099300028A4D1002384F8A03031B10223E8
:1058E40084F8A030032384F8993099E7032384F8DB
:1058F400A030012384F8993092E7032384F8993087
:1059040000298DD1002384F8A03030B1012384F81C
:10591400A030022384F8993082E7032384F8A0306E
:10592400012384F899307BE730B1012384F8A03057
:10593400022384F8993073E7032384F8A0306FE7D7
:1059440030B1012384F8A030022384F8993067E74A
:10595400032384F8A030012384F8993060E70023FE
:10596400ADF84030B5F91230ADF84230B5F9DA305F
:10597400ADF84430B5F9CE30ADF84630099BB3F5F7
:105984007A5F05DC13F57A5F05DA5B4B099302E075
:105994004FF47A530993737814AA02EB430333F94F
:1059A400103C5B01554A82FB0312DB17C3EBE20395
:1059B4009BB2099A02FB03F343F30F33099394F95F
:1059C400971094F89930003B18BF01235AB284F819
:1059D4009720002B42D0002B40F08580B4F974301E
:1059E400002BC0F28480A4F8763094F9912095F8C5
:1059F400F930022B00F04783B4F974804FF0FF3381
:105A040084F89130934206D02AB9A4F84C20A4F823
:105A14004E20A4F85020002B40F0CF83B4F95A3024
:105A2400B4F97E1001FB03F040F38F3EB4F958C083
:105A3400B4F97C2002FB0CF040F38F30AEEB000095
:105A4400B0F5004F80F2238310F5004F80F22183DC
:105A54002B481EE34FF47A530993B0E7914204D0E4
:105A6400012384F8A6300023A364B4F98C3019030D
:105A7400002B28DA41F0784194F8A6008DF84F0005
:105A8400002384F8A63008BBA36C5A4212F0006FBE
:105A94001ED042F0784C2A68624508DB524212F06C
:105AA400006F18D042F07842944500DB62461344FC
:105AB40013F0006F12D043F0784390B1A1641B132C
:105AC400A4F874308AE721F07841D5E70B46DCE787
